:040000000A16C12DEE
:100006007B15FB1F0D280130F300F201F101F00111
:08001600FA0DF20CFF300800A6
:0E001E00F201F101F001F801F30100300800D9
:08002C00FA1FF2130030080076
:10003400FB14FB1F2428FF30F300F200F100F00052
:08004400FA0DF20CFF30080078
:10004C007C185C28FC182D287C197B282628A001FC
:10005C007208031D4D287108F2007008F100780831
:10006C00F000F801A0157208031D4D287108F2006C
:10007C007008F100F001A01120167208031D4D2824
:10008C007108F200F101A015720803196F282008FD
:10009C00F302031D031C73280310F21B5C28F80DDC
:1000AC00F00DF10DF20DF30B532873287B1B701C14
:1000BC007728F81F7728F00A0319F10A0319F20AB6
:1000CC00031D7728F20CF10CF00CF30A03197B28B2
:1000DC0077280130FC000F207E280230FC00032022
:1000EC007E280430FC0016207E280830FC001A20E4
:0400FC0000000800F8
:10010000A0017208031D95287108F2007008F10023
:10011000F001A0157208031D95287108F200F10185
:10012000A011201672080319A3282008F302031D4A
:10013000031CA7280310F21BAB28F00DF10DF20DE4
:10014000F30B9B28A7280130FC000F20AE280230BB
:0E015000FC000320AE280430FC00162008003E
:10015E008312031372087606A000F801F9017308E2
:10016E007702031CD2287708FD007308F7007D087C
:10017E00F3007608FD007208F6007D08F20075089F
:10018E00FD007108F5007D08F1007408FD0070088F
:10019E00F4007D08F000770803194B297208FA0065
:1001AE00F217F61777087302F700031905290830BE
:1001BE007702031CFB28F7007408F9007508F40099
:1001CE007608F500F60108307702031CFB28F700CD
:1001DE007408F9007508F400F50108307702031C65
:1001EE00FB287A08F2004B2977080319052903101A
:1001FE00F60CF50CF40CF90CF70BFE28A01F1229C7
:10020E00F909F409F509F609F90A0319F40A0319AB
:10021E00F50A0319F60A7908F80774080318740F1B
:10022E00F00775080318750FF10776080318760F97
:10023E00F207A01B2B29031C3B29F20CF10CF00C2E
:10024E00F80CF30F3B29472903183F29F809F00949
:10025E00F109F209F80A0319F00A0319F10A031950
:10026E00F20A8030FA0643290130FC0026204D297F
:10027E000230FC0026204D290430FC0080204D2940
:10028E000830FC001A204D290030FC000000080048
:10029E007B14FB1F5A29F201FA1FFF30F200F10006
:0A02AE00F000FA0DF20CFF3008001A
:1002B800831203137008F8007108F0007208F10047
:1002C8007308F200F301FB01FC019E30F300FA0110
:1002D800F21F7A29F809F009F109F209F80A031955
:1002E800F00A0319F10A0319F20AFA170230FC009E
:0402F80026200800B4
:0C02FC00831203138030F606AF200800C8
:0E0308008316031347088A0046088200080087
:06031600FB15FF3008009A
:10031C0083120313FB017308031D77080319E529E6
:10032C0072087606FA007708F3077E30031CA229C0
:10033C00F3020318E829A529F302031CEB29720820
:10034C00F8007108FC007008FD00F817F617031090
:10035C00F201F101F0011830A0007D1CBF297408D6
:10036C00F00775080318750FF10776080318760F58
:10037C00F207F20CF10CF00CF80CFC0CFD0C031059
:10038C00A00BB329F21BCF29F80DF00DF10DF20DD6
:10039C00F3037B1B701CE129F81FE129F00A0319F8
:1003AC00F10A0319F20A031DE129F20CF10CF00C0D
:1003BC00F30A0319E829FA1FF2130030ED29013072
:1003CC000F20ED2902301A20ED2904300320000003
:0203DC00080017
:0C03DE000000000000000000000008000B
:0E03EA00533083120313FD00FD0BF9290800A8
:1003F800243083120313FC00B530FD00FD0B022AE4
:0A040800FC0B022A000000000800AF
:1004120083120313FA017308031D7A147708031D6C
:10042200FA147A080319552A033A0319202A7A186A
:100432001D2AF61F532A512AF21F512A532A7208E3
:100442008039FA00F21376088039F6137A06031916
:100452002E2A7A080319512A532A7708730203199C
:10046200352A031C492A4D2A7608720203193C2AAE
:10047200031C492A4D2A750871020319432A031CD9
:10048200492A4D2A740870020319552A03184D2A65
:10049200FA080319532A512AFA080319512A532A2E
:1004A20003140800031008000314031508000800D1
:1004B20083120313FB01FC01F80173080319D12A0B
:1004C2007208FA00F2179E30F302F31FC12AF309F1
:1004D200F30A08307302031C962AF300F80D700821
:1004E200F8007108F0007208F100F201083073029E
:1004F200031C962AF300F80D7008F8007108F0004A
:10050200F10108307302031C962AF300F80D7008FB
:10051200F800F00108307302031C962AF300F80D6C
:10052200F8017308031D0310A02A73080319A02AF7
:100532000310F20CF10CF00CF80CF30B992A7B1B54
:10054200781CAE2A031CAE2AF80A0319F00A031912
:10055200F10A0319F20AF21BCE2AFA1FD12AF20972
:10056200F109F009F809F80A0319F00A0319F10A66
:100572000319F20AD12AF201F101F001F801D12A9C
:100582007B14FB1FD42AF201FA1FD42AF200F100D5
:10059200F000F800FA0DF20CD42A0130FC00D62A41
:1005A2000030FC00D62AFF30FC00FC080319DA2ACE
:1005B2004F217208F3007108F2007008F100780808
:0405C200F00008003D
:1005C60083120317941BE92A8611EA2A8615141B3F
:1005D600EE2A0611EF2A0615941AF32A8610F42A33
:1005E6008614141AF82A0610F92A061403136F182B
:1005F600FE2A0616FF2A06128616EF218612031712
:100606009419072B8611082B861514190C2B061125
:100616000D2B06159418112B8610122B8614141800
:10062600162B0610172B061403136F181C2B061611
:100636001D2B06128616EF2186126F1C242BFC2119
:06064600252BF521080040
:10064C00831203137008F100F0010830FC007108EC
:10065C00F40C0318352BFC0B2E2BF101003403107A
:10066C003A2BF40C0318F107F10CF00CFC0B372BA4
:02067C00080074
:10067E00831203137408003A031D5A2B7508003AAF
:10068E00031D5A2B7608003A031D5A2B7708003AA1
:10069E00031D5A2BFF30F000FF30F1007F30F200C7
:1006AE00FF30F300F52B8312031377080319E92BA0
:1006BE0073080319EC2B720876068039FA00F217CC
:1006CE00F617A0017208F8007108FC007008FD0012
:1006DE007408FD027508031C750FFC027608031CD6
:1006EE00760FF802F801FC01FD01031C852B0310A7
:1006FE00F20CF10CF00CF80C0130A0007708F302AC
:10070E00031C8F2B7E302007F3070318EF2B942B3F
:10071E007E302007F307031CF22B1830FA07FD0D6D
:10072E00FC0DF80DF00DF10DF20DA00D7408F00298
:10073E007508031C750FF1027608031C760FF20282
:10074E00760DA004201CAD2B7D14B82B7408F00779
:10075E0075080318750FF10776080318760AF20765
:10076E007D10FA031F307A05031D962B7B1B7D1C13
:10077E00DF2B0310F00DF10DF20DA00D7408F00239
:10078E007508031C750FF1027608031C760FF20232
:10079E00760D20040139FD070318FC0A0319F80A27
:1007AE00031DDF2BF80CFC0CFD0CF30A0319EF2BC9
:1007BE00FA1FF8137808F2007C08F1007D08F000AB
:1007CE000030F42B01308B21F42B02300F20F42B50
:0E07DE0004301A20F42B08300320000008001D
:1007EC00831203171A08F0001B08F100F00DF10D2D
:1007FC007010F00DF10D70101808F007190803189F
:10080C00013EF107700883160313C6007108C70078
:10081C0084218A110A12831203179C008316031376
:10082C00C60A0319C70A84218A110A1283120317F4
:10083C009D0083160313C60A0319C70A84218A1163
:10084C000A12831203179E0083160313C60A031998
:10085C00C70A84218A110A12831203179F001A08EF
:10086C001B040319892C1408F0001508F100160854
:10087C00F2001708F3001C08F4001D08F5001E0810
:10088C00F6001F08F7008E21013003179A02031C93
:10089C009B031A08F4001B08F500F40DF50D7410F9
:1008AC00F40DF50D74101808F40719080318013E1F
:1008BC00F507740883160313C6007508C700842156
:1008CC008A110A12F400C60A0319C70A84218A1174
:1008DC000A12F500C60A0319C70A84218A110A12E2
:1008EC00F600C60A0319C70A84218A110A12F700F6
:1008FC00AF20700803179C0071089D0072089E00C1
:10090C0073089F00352C1C08F0001D08F1001E0810
:08091C00F2001F08F3000800BF
:10092400831203171408203A0319A32C14080D3C4E
:10093400031CA12C09301402031CA12CA32CF001CC
:08094400A52C0130F0000800B1
:10094C00831203132230FC00F801F901FA01FB01B8
:10095C00FC030319DC2C0310FB0CFA0CF90CF80C3F
:10096C00F30CF20CF10CF00C031CAE2CFC03031971
:10097C00CE2C7408F80775080318750FF90776085C
:10098C000318760FFA0777080318770FFB07B22CBA
:10099C007408F80775080318750FF907760803181B
:0E09AC00760FFA0777080318770FFB0708008D
:1009BA00831203171408393C031CEA2C3030140242
:0E09CA00031CEA2C0130F000EB2CF0010800B9
:1009D800831203171708F000F101F201F301FF3049
:1009E800F0050030F10570089C0071089D007F300B
:1009F8007002F2000030031C013E7102F30072081D
:100A08009C0073089D0080307306F00080307002EF
:100A1800031D102D003072020318342DF401F50166
:100A2800F601F7011408F0001508F1001608F200A5
:100A38001708F3000922013003180030F00070088D
:100A480003192F2D0030F0000030F1008030F20043
:100A58007F30F3008D2DF001F101F201F3018D2DAE
:100A680003171D08003C031D3B2D1C08183C0318E8
:100A7800462D1408F0001508F1001608F2001708B2
:100A8800F3008D2D1408F0001508F1001608F20087
:100A98001708F30059225C217008031798007108A1
:100AA800990072089A0073089B007008F400710896
:100AB800F5007208F6007308F7001408F00015082E
:100AC800F1001608F2001708F30009220130031894
:100AD8000030F00070080319842D0030F400003055
:100AE800F5000030F6007F30F70003171808F00013
:100AF8001908F1001A08F2001B08F3007E218D2D59
:100B080003171808F0001908F1001A08F2001B086A
:040B1800F3000800DE
:100B1C008312031373087706031DA12D7208760642
:100B2C00031DA12D71087506031DA12D70087406F7
:0C0B3C000319031508000311080008004D
:100B480083120313FB0173080319E12D7208FA00DD
:100B5800F2178E30F302F31FE42DF309F30A08307D
:100B68007302031CC72DF300F10D7208F100F201A6
:100B780008307302031CC72DF300F10DF10173084F
:100B8800031D0310CF2D73080319CF2D0310F20C8A
:100B9800F10CF30BCA2D7B1B711CD92D031CD92D0D
:100BA800F10A0319F20AF21BF02DFA1FF32DF209CC
:100BB800F109F10A0319F20AF32DF201F101F32DFB
:100BC8007B14FB1FF62DF201FA1FF62DFF30F20001
:100BD800F100FA0DF20CF62D0130FC00F82D003072
:100BE800FC00F82DFF30FC00FC080319FC2D4F21F8
:0A0BF8007108F0007208F100080017
:100C020083120313F8010830FC00700DF80D74080C
:100C1200F80203180E2EF8070310F00DFC0B062E37
:020C22000800C8
:100C240083160313ED01F401F501F601F7016908D8
:100C3400F0006A08F1006B08F2006C08F300092266
:100C4400013003180030F00070080319342E00300E
:100C54008316E9060030EA068030EB060030EC0625
:100C64000130ED0083166908F0006A08F1006B0892
:100C7400F2006C08F3008330F400F930F500223000
:100C8400F6007C30F7008E2170088316E9007108A5
:100C9400EA007208EB007308EC0070088312031773
:100CA4009400710895007208960073089700EC246C
:100CB400831203137008F4007108F5007208F6003B
:100CC4007308F70083166908F0006A08F1006B08DE
:100CD400F2006C08F3007E210030F4000030F500CF
:100CE4000030F6008130F7008E2170088316E90089
:100CF4007108EA007208EB007308EC007008F40055
:100D04007108F5007208F6007308F7000030F0006F
:100D14000030F1000030F2008030F300092201308D
:100D240003180030F00070080319B82E0030F400E6
:100D34000030F5000030F6008030F70083166908B3
:100D4400F0006A08F1006B08F2006C08F3007E21E1
:100D540070088316E9007108EA007208EB00730852
:100D6400EC006D080130031D0030ED0083166908A6
:100D7400F4006A08F5006B08F6006C08F700003010
:100D8400F0000030F1000030F2007F30F30009225F
:100D9400013003180030F00070080319EC2E83169C
:100DA4006908F4006A08F5006B08F6006C08F7009F
:100DB4000030F0000030F1000030F2008030F30029
:100DC4007E2170088316E9007108EA007208EB00BE
:100DD4007308EC0083166908F0006A08F1006B08D8
:100DE400F2006C08F3006908F4006A08F5006B0867
:100DF400F6006C08F7008E21700803179000710844
:100E040091007208920073089300700894007108AE
:100E140095007208960073089700243098001830E3
:100E2400990004309A0000309B00F62383160313C4
:100E34006908F4006A08F5006B08F6006C08F7000E
:100E44008E2170088316E9007108EA007208EB002D
:100E54007308EC008312031710089400110895001E
:100E64001208960013089700EE3098001730990086
:100E740003309A0000309B00F6237008F4007108D8
:100E8400F5007208F6007308F70083160313690867
:100E9400F0006A08F1006B08F2006C08F3003F23CD
:100EA40070088316E9007108EA007208EB00730801
:100EB400EC006D0803196B2F00306906F000003058
:100EC4006A06F10080306B06F20000306C06F30015
:100ED400732F6908F0006A08F1006B08F2006C08CF
:040EE400F30008000F
:100EE800E93083120313F4000330740784007E3062
:100EF8000002F000F101031CF10383166D08840061
:100F0800700880007108840A800003307407840028
:100F18007E3080006908F0006A08F1006B08F20072
:060F28006C08F300080054
:100F2E0083120313F801F9011030FC00710DF80D56
:100F3E00F90D7408F8027508031C750FF9020318F1
:100F4E00AF2F7408F80775080318750FF90703100B
:0A0F5E00F00DF10DFC0B9D2F0800B3
:100F6800831203136F108316690883120317940002
:060F7800E3226F140800E3
:100F7E00831203137008F8007108F000F101F201FA
:100F8E00F301FB01FC019630F300FA01F01FD52F9F
:100F9E00F809F009F80A0319F00AFA177008F100B7
:0C0FAE007808F000F801F2018020080033
:100FBA00831603136908F2007208F100F20A6A083C
:100FCA00F000EA0A700884000008F0007108840042
:100FDA00700880007108840000080319F52FE12FBA
:060FEA006908F000080098
:10100000E93083160313EF0003306F0784000008F4
:101010006D07F1006E080318013EF2007108ED0043
:101020007208EE0080307206F00080307002031DFE
:101030001B280030710203182228F001F101F2018F
:10104000F30163288030F00080306E067002031DCB
:101050002B286D08FF3C03185528F401F501F60113
:10106000F7016908F0006A08F1006B08F2006C08EB
:10107000F3008A1109228A15013003180030F000AC
:10108000700803194C28FF30F000FF30F100FF30EA
:10109000F200FF30F3006328FF30F000FF30F10072
:1010A0007F30F200FF30F3006328033083166F07B0
:1010B00084006D0880006908F0006A08F1006B0880
:0810C000F2006C08F3000800C7
:1010C800831603136A0803196D286A0884006908DF
:1010D8008000690884000008F0007008ED007008BE
:1010E8008312031794008A1192248A157008031931
:1010F800812883160313E90A6D2883160313EB016D
:101108000030ED1BFF30F00000307006031D8E2804
:101118002D306D06031D94280130EB00E90AA12843
:101128000030ED1BFF30F00000307006031D9E28D4
:101138002B306D06031DA128E90AED018312031760
:10114800900191019201930183160313EC016B1A2C
:10115800B6286908840000082E3A031DB6286B16C5
:10116800E90A1D29690884000008831203179400FE
:101178008A11DD248A157008031DC3281E298316C9
:101188000313EB146D08083A031915296B1ECD28B3
:10119800EC03ED0A831203171008F0001108F100A0
:1011A8001208F2001308F3000A30F400F501F60102
:1011B800F7018A11A6248A15700803179000710890
:1011C80091007208920073089300000000008316D3
:1011D80003136908840030300002F000F101031C99
:1011E800F1030030F11BFF30F200F3008312031704
:1011F8001008F00711080318110FF1071208031857
:10120800120FF20713080318130FF3077008900062
:1012180071089100720892007308930000000000A2
:101228001A29831603136B1A1A29EC0A8316031357
:10123800E90AAB2883160313ED0169088400000846
:10124800653A03192E29690884000008453A0319EC
:101258002E299F29E90A6908840000082D3A031DF0
:101268003829EB15E90A3F296908840000082B3A58
:10127800031D3F29E90A690884000008303A031D64
:101288004729E90A3F2969088400000883120317DF
:1012980094008A11DD248A15700803199829831689
:1012A80003136908840030300002ED00E90A690878
:1012B800840000088312031794008A11DD248A151C
:1012C800700803199829831603136D08F0000A3073
:1012D800F4008A1126238A158316690884003030A1
:1012E8000002F10071087007ED00E90A690884003E
:1012F80000088312031794008A11DD248A157008E8
:1013080003199829831603136D08F0000A30F400B6
:101318008A1126238A158316690884003030000252
:10132800F10071087007ED0083160313EB1D9F2968
:101338006D08003CED006D08EC076A08003A0319D7
:10134800AB29EB1CAB296A0884006908800083126A
:1013580003171008F0001108F1001208F200130832
:10136800F3008A115C218A15700803179000710830
:1013780091007208920073089300F401F501F601D8
:10138800F7011008F0001108F1001208F200130824
:10139800F3008A118E258A150130031D0030F000F4
:1013A80070080319DC29F001F101F201F3010E2B99
:1013B800803083166C06F0008030003A7002031803
:1013C8006B2A6C08003CEC0080306C06F000803022
:1013D8000A3A7002031C132A831203171008F0003C
:1013E8001108F1001208F2001308F300FF30F400AE
:1013F800E630F5005B30F6005D30F7008A118E218B
:101408008A157008031790007108910072089200FD
:10141800730893000A3083160313EC02E8296C085A
:10142800003A0319392A831203171008F00011082B
:10143800F1001208F2001308F300CD30F400CC30AC
:10144800F5004C30F6007B30F7008A118E218A15A2
:1014580070080317900071089100720892007308D1
:10146800930083160313EC03132A0130F4000030B1
:10147800F5000030F6000130F7008312031710085A
:10148800F0001108F1001208F2001308F3008A11A5
:1014980009228A15013003180030F000700803197A
:1014A8006A2A83166B1C612A0130F0000030F100B3
:1014B8008030F2000330F3000E2B0130F0000030D2
:1014C800F1000030F2000130F3000E2BF22A8316EF
:1014D8008030003AF00080306C0670020318F22A5F
:1014E8000A306C02031C9B2A831203171008F000B1
:1014F8001108F1001208F2001308F300F930F400A3
:101508000230F5001530F600A030F7008A118E2160
:101518008A157008031790007108910072089200EC
:10152800730893000A3083160313EC02742A6C08BC
:10153800003A0319C12A831203171008F000110892
:10154800F1001208F2001308F3000030F400003034
:10155800F5002030F6008230F7008A118E218A15B6
:1015680070080317900071089100720892007308C0
:10157800930083160313EC039B2A831203171008A6
:10158800F4001108F5001208F6001308F700FF3000
:10159800F000FF30F1007F30F200FF30F3008A11D5
:1015A80009228A15013003180030F0007008031969
:1015B800F22A83166B1CE92AFF30F000FF30F10095
:1015C800FF30F200FF30F3000E2BFF30F000FF3049
:1015D800F1007F30F200FF30F3000E2B83166B1CF6
:1015E800042B0030831203171006F0000030110698
:1015F800F10080301206F20000301306F3000E2BC3
:10160800831203171008F0001108F1001208F20005
:061618001308F3000800B6
:10161E00831603135C08F4005D08F5005E08F600FF
:10162E005F08F700DB30F0000F30F1004930F200B8
:10163E008030F3008A1109228A1501300318003018
:10164E00F000700803194C2BE430F400CB30F50099
:10165E001630F6008130F70083165C08F0005D0846
:10166E00F1005E08F2005F08F3008A117E218A15F0
:10167E0070088316E9007108EA007208EB0073081F
:10168E00EC008A1112268A156C2B83165C08F0006A
:10169E005D08F1005E08F2005F08F300DB30F40035
:1016AE000F30F5004930F6007F30F7008A11AF2079
:1016BE008A1570088316E9007108EA007208EB00BB
:0C16CE007308EC008A1112268A1508002F
:1016DA00003083160313E4000030E5000030E60012
:1016EA007F30E700E201E30180306306F0008030DA
:1016FA0061067002031D832B600862020318A52B82
:10170A006408F0006508F1006608F2006708F30053
:10171A005C08F4005D08F5005E08F6005F08F70053
:10172A008A118E218A1570088316E4007108E50073
:10173A007208E6007308E700E20A0319E30A792B44
:10174A006408F0006508F1006608F2006708F30013
:02175A00080085
:0E175C00831603135C08E900EA01642008000C
:10176A0083120313F401F501F601F70183165C08ED
:10177A00F0005D08F1005E08F2005F08F3008A11CC
:10178A008E258A150130031D0030F00070080319F8
:10179A00D72B0030F0000030F1000030F2007F302B
:1017AA00F300FD2C83165C08F4005D08F5005E0862
:1017BA00F6005F08F700FC30F000D430F100323058
:1017CA00F2008530F3008A1109228A1501300318C4
:1017DA000030F00070080319FB2BFF30F000FF30D7
:1017EA00F1007F30F200FF30F300FD2C4F30F4009F
:1017FA00AC30F500AE30F6008530F70083165C0891
:10180A00F0005D08F1005E08F2005F08F3008A113B
:10181A0009228A15013003180030F00070080319F4
:10182A001B2CF001F101F201F301FD2CF401F50189
:10183A00F601F70183165C08F0005D08F1005E0806
:10184A00F2005F08F3008A1109228A150130031891
:10185A000030F00070088316E200700803193D2C6E
:10186A000030DC060030DD068030DE060030DF06A0
:10187A005C08F0005D08F1005E08F2005F08F30002
:10188A003B30F400AA30F5003830F6007F30F7001C
:10189A008A118E218A1570088316DC007108DD0012
:1018AA007208DE007308DF007008831203179400C1
:1018BA007108950072089600730897008A11EC2443
:1018CA008A158A11A4258A1570088316E000710802
:1018DA00E1008A11BF278A157008F4007108F50023
:1018EA007208F6007308F70083165C08F0005D08BA
:1018FA00F1005E08F2005F08F3008A117E218A1562
:10190A0070088316DC007108DD007208DE007308B7
:10191A00DF0070088312031794007108950072089B
:10192A00960073089700C63098001730990009305E
:10193A009A0000309B008A11F6238A1570088316D4
:10194A000313E9007108EA007208EB007308EC005F
:10195A006008ED006108EE0000208312031370088E
:10196A008316DC007108DD007208DE007308DF00F0
:10197A0062080319F42CFF30F400FF30F5007F30C1
:10198A00F600FF30F7005C08F0005D08F1005E0821
:10199A00F2005F08F3008A118E258A150130031DB3
:1019AA000030F00070080319DF2CF001F101F20198
:1019BA00F301FD2C83165C08F4005D08F5005E084F
:1019CA00F6005F08F7000030F0000030F100003048
:1019DA00F2007F30F3008A113F238A15FD2C83160B
:1019EA005C08F0005D08F1005E08F2005F08F30091
:0219FA000800E3
:1019FC00831603135C08F4005D08F5005E08F6001E
:101A0C005F08F700F001F101F201F3018A110922DC
:101A1C008A150130031C0030F000700803191B2DCF
:101A2C00F001F101F201F301912D83165C08E9003C
:101A3C005D08EA005E08EB005F08EC00E030ED00AA
:101A4C008A1174278A150030F4000030F50000303C
:101A5C00F6008030F7008A118E218A150030F400D0
:101A6C000030F5000030F6007F30F7008A117E213F
:101A7C008A1570088316DC007108DD007208DE0020
:101A8C007308DF000130E002031CE10370088312CD
:101A9C00031794007108950072089600730897005C
:101AAC00003098001830990008309A0000309B00E4
:101ABC008A11F6238A15700883160313E200710845
:101ACC00E3007208E4007308E5006208DC006308B8
:101ADC00DD006408DE006508DF006008F0006108C6
:101AEC00F1008A11BF278A151830F4007230F50006
:101AFC003130F6007E30F7008A118E218A1583165C
:101B0C006208F4006308F5006408F6006508F70045
:081B1C008A11AF208A150800B0
:101B240083160313E701E8015C08E3005D08E400A1
:101B34005E08E5005F08E6006608FF3A031DAC2D69
:101B44006508FF3A031DAC2D6408FF3A031DAC2D54
:101B54006308FF3A031DB82D6008E9006730EA0006
:101B64008A11DD278A150330F000A52F0130E1002A
:101B7400E51FC72D80306506F0007008E500E10A16
:101B8400600884002D308000E00A0030F000660612
:101B9400031DD62D70086506031DD62D7008640636
:101BA400031DD62D6308003A031DE12D6008E900EA
:101BB4006B30EA008A11DD278A15F001A52F66082B
:101BC400FF3A031DEF2D6508003A031DEF2D64084D
:101BD400003A031DEF2D6308003A031DFB2D600836
:101BE400E9006330EA008A11DD278A156108F000F4
:101BF400A52F0030F4000030F5000030F6007F30EF
:101C0400F7006308F0006408F1006508F200660854
:101C1400F3008A1109228A15013003180030F000FC
:101C240070080319342E83166308F0006408F10069
:101C34006508F2006608F3000030F4000030F50097
:101C44002030F6008230F7008A118E218A15700840
:101C54008316E3007108E4007208E5007308E600E7
:101C6400E803FB2D83160030F4000030F50020302B
:101C7400F6008230F7006308F0006408F10065089C
:101C8400F2006608F3008A1109228A150130031C48
:101C94000030F000700803196E2E83166308F000FC
:101CA4006408F1006508F2006608F300CD30F40022
:101CB400CC30F5004C30F6007B30F7008A118E21D1
:101CC4008A1570088316E3007108E4007208E500C1
:101CD4007308E600E80A342E8316FF306305F80023
:101CE400FF306405F9007F306505FA0000306605B1
:101CF400FB007808F4007908F5007A08F6007B0800
:101D0400F700F40DF50DF60DF70D741000306305B2
:101D1400F00000306405F10000306505F200FF308A
:101D24006605F3007008E3007108E4007208E5003A
:101D34007308E60074086304F00075086404F10095
:101D440076086504F20077086604F3007008E3007F
:101D54007108E4007208E5007308E6007F3066024B
:101D6400F0007008E2000130E6007008F400630837
:101D7400F0006408F1006508F2006608F3007408D6
:101D84000319CB2EF00DF10DF20DF30D7010FF3E83
:101D9400C22E7008E3007108E4007208E5007308BD
:101DA400E6006608303EF000600884007008800099
:101DB400E00A80306806F0008030013A7002031CAB
:101DC400EC2E8030063AF000803068067002031C66
:101DD400EC2EF32E600884002E308000E00A0130DF
:101DE400E7000630E2006208003A0319512FE601C9
:101DF4006308F0006408F1006508F2006608F30067
:101E0400F00DF10DF20DF30D7010F00DF10DF20D5A
:101E1400F30D70106308F00764080318640FF107EA
:101E240065080318650FF20766080318660FF307C1
:101E34007008E3007108E4007208E5007308E60026
:101E44006308F0006408F1006508F2006608F30016
:101E5400F00DF10DF20DF30D70107008E300710830
:101E6400E4007208E5007308E6006608303EF000FE
:101E74006008840070088000E00A6708003A031DC7
:101E84004F2FE8036808003A031D4F2F60088400B1
:101E94002E308000E00A0130E700E203F52EFF3027
:101EA400600784000008303A031D5A2FE003512FC5
:101EB400FF306007840000082E3A031D622FE00300
:101EC4006808003A0319A12F600884006530800077
:101ED400E00A80306806F0008030003A700203188F
:101EE4007B2F600884002D308000E00A6808003CE5
:101EF400E8006808E2006808093C0318902F0A30DB
:101F0400F4006208F0008A1101268A153030F007C7
:101F140083166008840070088000E00A0A30F40028
:101F24006208F0008A1101268A157808F000303022
:101F3400F00783166008840070088000E00A6008D7
:081F440084008001F001080097
:101F4C0083160313DD015D085C0784000008031988
:101F5C00BA2F5D085C0784000008E9008A11B427D9
:0A1F6C008A158316DD0AA92F08006C
:101F760001308312031794008A11E3228A15023076
:101F8600031794008A11E3228A158316A001A10182
:101F9600A201A301A801A901AA01AB018312BC01F8
:101FA600BD01BE01BF01ED01EE0180306E06F000FD
:101FB60080307002031DE12F06306D020318EB2FEF
:101FC6006D08BD3E84008001ED0A0319EE0AD82F84
:0A1FD600AA01AB018316C501080043
:101FE0008A1184218A150A128000840AC60A0319FC
:0A1FF000C70AF003031DF02F0800DC
:102000001228803083160313DC002528C030DC0042
:1020100025289430DC002528D430DC0025288030A9
:10202000DC002528831603135C08013A03190128F4
:102030005C08023A031906285C08033A03190928C8
:102040005C08043A03190C280F285D03F0005C08B3
:10205000F0077008DC0070088312031794000A125E
:10206000E3220A166F108316DF015F085E07840003
:102070000008031946285F085E0784000008E9008D
:102080000A12B4270A168316DF0A352883126F1442
:02209000080046
:1020920083160313DC0183128716071C5328313081
:1020A2008316DC008312871C592834308316DC0027
:1020B2008312071D5F2837308316DC008312871DC9
:1020C200652878308316DC008312071E6B28733074
:1020D2008316DC00831287120717071C732832301D
:1020E2008316DC008312871C792835308316DC00C6
:1020F2008312071D7F2838308316DC008312871D68
:10210200852830308316DC008312071E8B2863304B
:102112008316DC00831207138717071C93283330BA
:102122008316DC008312871C992836308316DC0064
:102132008312071D9F2839308316DC008312871D06
:10214200A5282E308316DC008312071EAB286C30C4
:102152008316DC00831287130814071CB3282B3064
:102162008316DC008312871CB9282D308316DC000D
:102172008312071DBF282A308316DC008312871DB5
:10218200C5282F308316DC008312071ECB2865304A
:102192008316DC00831208108814071CD3286130D0
:1021A2008316DC008312871CD9283D308316DC009D
:0C21B2008312881083165C08F0000800FF
:1021BE0083160313DF0105305F020318ED285F0855
:1021CE005E07840020308000DF0AE2285F085E0789
:1021DE0084008001DF035F085E07E0000A30F40030
:1021EE00F5015C08F0005D08F1000A1297270A1647
:1021FE007808F0007908F1003030F0078316600897
:10220E008400700880000A30F400F5015C08F000CC
:10221E005D08F1000A1297270A1670088316DC0073
:10222E007108DD0000307106031D1F290030700695
:0C223E00031D22292429DF03F2280800D8
:10224A0083160313D201D3014D08D4004E08D500DA
:10225A0080304E06F00080307002031D36290030AF
:10226A004D02031844290130D2000030D3004D0832
:10227A00003CD4004E08031C013ED501D502540887
:10228A00DC005508DD004F08DE00DF200630D000F4
:10229A000030D1005108003C031D55295008003C6C
:1022AA000318702950084F07F20001305002F0005D
:1022BA000030031C013E5102F10070084F078400F0
:1022CA000008F00072088400700880000130D00213
:1022DA00031CD1034F294F08840020308000520884
:1022EA00530403198E29D001D10150084F078400E5
:1022FA000008203A031D8529D00A0319D10A7A2930
:10230A000130D002031CD10350084F0784002D303E
:04231A008000080037
:10231E008316031355082B3A031DB2294D08F000FE
:10232E004E08F1004F08F2005008F3005108F40077
:10233E005208F5005308F6005408F7000A12AF20B1
:10234E000A1670088316D6007108D7007208D800D6
:10235E007308D9001B2B55082D3A031DD32951089C
:10236E00F4005208F5005308F6005408F7004D0823
:10237E00F0004E08F1004F08F2005008F3000A1268
:10238E007E210A1670088316D6007108D7007208CF
:10239E00D8007308D9001B2B55082A3A031DF429BF
:1023AE004D08F0004E08F1004F08F2005008F300FF
:1023BE005108F4005208F5005308F6005408F700CF
:1023CE000A128E210A1670088316D6007108D700DD
:1023DE007208D8007308D9001B2B55082F3A031D1D
:1023EE00152A5108F4005208F5005308F600540857
:1023FE00F7004D08F0004E08F1004F08F2005008AB
:10240E00F3000A123F230A1670088316D6007108CD
:10241E00D7007208D8007308D9001B2B5508733AE1
:10242E00031D572A5108F0005208F1005308F2001C
:10243E005408F3004D08F4004E08F5004F08F6005E
:10244E005008F7000A12AF200A16DB30F4000F30E6
:10245E00F5004930F6008030F7000A128E210A1678
:10246E000030F4000030F5003430F6008630F7000E
:10247E000A123F230A1670088316E9007108EA0053
:10248E007208EB007308EC000A1212260A16700886
:10249E00D6007108D7007208D8007308D9001B2B1C
:1024AE005508633A031D9B2A5108F0005208F100AB
:1024BE005308F2005408F3004D08F4004E08F500DE
:1024CE004F08F6005008F7000A12AF200A16DB304C
:1024DE00F4000F30F5004930F6008030F7000A1294
:1024EE008E210A160030F4000030F5003430F6006C
:1024FE008630F7000A123F230A1670088316DC0096
:10250E007108DD007208DE007308DF008A150A12FA
:10251E000F238A110A167008D6007108D7007208A8
:10252E00D8007308D9001B2B5508653A031DCC2A19
:10253E005108F0005208F1005308F2005408F3005D
:10254E004D08F4004E08F5004F08F6005008F7004D
:10255E000A12AF200A1670088316DC007108DD001F
:10256E007208DE007308DF008A150A12B5238A117D
:10257E000A168312031370088316D6007108D7004B
:10258E007208D8007308D9001B2B55086C3A031D2E
:10259E00FB2A5108F0005208F1005308F2005408CB
:1025AE00F3004D08F4004E08F5004F08F6005008F1
:1025BE00F7000A12AF200A1670088316DC007108A5
:1025CE00DD007208DE007308DF008A150A12FE2491
:1025DE008A110A1670088316D6007108D700720881
:1025EE00D8007308D9001B2B5508003A031D1B2B6E
:1025FE004D08F0004E08F1004F08F2005008F300AD
:10260E005108F4005208F5005308F6005408F7007C
:10261E000A12AF200A1670088316D6007108D7006A
:10262E007208D8007308D9005608F0005708F10058
:0A263E005808F2005908F3000800E4
:1026480049207008D0007008613A031D312B8A15A3
:102658000A12BB278A110A16782B5008003A031968
:10266800772B4D0884000008F000840A0008F10068
:10267800840A0008F200840A0008F3004E08840067
:10268800700880007108840A80007208840A80003B
:102698007308840A80004D0884008001840A800140
:1026A800840A8001840A80014F0884008001840A1A
:1026B8008001840A8001840A800101308312031793
:1026C80094000A12E3220A160230031794000A1231
:1026D800E3220A1601308316DC000530DD00A43041
:0A26E800DE000020782B242B0800F0
:1026F20083160313D601D7010130DC000130DD005F
:10270200AC30DE00002002308316DC000130DD0038
:102712002C30DE00002049207008D10049207008CA
:102722005106031D952B8F2B5108003A0319A92B33
:1027320051083D3A0319A92B5108E9000A12B4279E
:102742000A16303083165102D600D701031CD70374
:1027520051083D3A031DC32B013083120317940025
:102762000A12E3220A160230031794000A12E32225
:102772000A1633308316DC008A150A12A6278A113C
:102782000A16CE2B5108613A031DCD2B8A150A1267
:10279200BB278A110A16372D8C2B49207008D100CD
:1027A2007008003A0319E82B51083D3A0319E82B47
:1027B2005108E9000A12B4270A162A08BD3E84000D
:1027C2008316510880008312AA0A0319AB0A492012
:1027D20070085106031DEE2BE82B51083D3A031DEC
:1027E200002C01308312031794000A12E3220A1606
:1027F2000230031794000A12E3220A160C2C8316E5
:102802005108613A031D0B2C8A150A12BB278A1143
:102812000A16372DCE2B8316BD30DC008A150A121C
:10282200AE238A110A168312031370088316CD0091
:102832007108CE007208CF007308D0008312AA017B
:10284200AB018316D201D30180305306F0008030F1
:102852007002031D2E2C063052020318382C520827
:10286200BD3E84008001D20A0319D30A252CD4016B
:10287200D50180305706F000803055067002031DE6
:10288200442C54085602031C112D5408F00055081C
:10289200F1000A12BF270A1670088316DC007108BD
:1028A200DD007208DE007308DF00C330E0008A1525
:1028B2000A1292258A110A160130DC000130DD006D
:1028C2004030DE00002001308316DC001130DD00D4
:1028D200C330DE00002002308316DC000130DD0050
:1028E2003630DE00002049207008D10049207008EF
:1028F2005106031D7D2C772C5108003A0319942CA4
:1029020051083D3A0319942C5108E9000A12B427E0
:102912000A162A08BD3E84008316510880008312DD
:10292200AA0A0319AB0A831651083D3A031DA72CC4
:1029320001308312031794000A12E3220A160230AE
:10294200031794000A12E3220A16B32C83165108C5
:10295200613A031DB22C8A150A12BB278A110A1684
:10296200372D742C8316BD30DC008A150A12AE2373
:102972008A110A168312031370088316D80071088D
:10298200D9007208DA007308DB004D08DC004E083B
:10299200DD004F08DE005008DF005408E000550853
:1029A200E1008A150A126D238A110A165808F400EA
:1029B2005908F5005A08F6005B08F7000A128E2142
:1029C2000A163C08F4003D08F5003E08F6003F08F0
:1029D200F7000A12AF200A167008BC007108BD0089
:1029E2007208BE007308BF00AA01AB018316D201B0
:1029F200D30180305306F00080307002031D032D96
:102A02000630520203180D2D5208BD3E840080018B
:102A1200D20A0319D30AFA2CD40A0319D50A3A2C7A
:102A220083123C088316DC0083123D088316DD0006
:102A320083123E088316DE0083123F088316DF00EE
:102A4200B730E0008A150A1292258A110A1601305F
:102A5200DC000130DD002130DE0000200230831670
:0E2A6200DC000130DD00B730DE00002008008F
:102A7000831603138612061206108610061186119D
:102A800083128612061286110611861006100A128B
:102A9000FC210A160A12FC210A160A12FC210A1647
:102AA0008614061486160A12EF210A1686120A12D6
:102AB000FC210A1686160A12EF210A1686120A123D
:102AC000FC210A1686160A12EF210A1686120A122D
:102AD000FC210A16061086160A12EF210A16861223
:102AE0000A12FC210A1686160A12EF210A1686120D
:102AF0008610861586160A12EF210A1686120A1209
:102B0000FC210A168611061486160A12EF210A16EF
:102B10008612061086160A12EF210A1686120A126B
:102B2000FC210A1686160A12EF210A1686120614CE
:102B300086160A12EF210A1686120A12FC210A16BC
:102B4000061086160A12EF210A1686128615061539
:102B50008614061486160A12EF210A1686120A1225
:082B6000FC210A166F140800A5
:102B6800831603130714871407158715071687128A
:0A2B780007138713081088100800E7
:102B82008A1550208A1183160313C801B4253825EB
:102B92000C30031794000A12E3220A164920700827
:102BA200C800492070084806031DD82DD22D4808B8
:102BB200783A031DDE2D7923752F303083160313E7
:102BC2004802031CE92D4808393C031CE92DEE2D6F
:102BD20048082E3A0319EE2DFE2D4808E9000A1284
:102BE200B4270A162A08BD3E8400831648088000CE
:102BF2008312AA0A0319AB0A752F831648082B3AC7
:102C02000319202E48082D3A0319202E48082A3A83
:102C12000319202E48082F3A0319202E4808733A28
:102C22000319202E4808633A0319202E4808653AF2
:102C32000319202E48086C3A0319202EAF2E48089B
:102C42002B3A0319312E48082D3A0319312E480820
:102C52002A3A0319312E48082F3A0319312E372EFA
:102C62004808E9000A12B4270A166A2E8316480891
:102C7200733A031D442E0130DC000130DD0059306F
:102C8200DE0000206A2E83164808633A031D512E87
:102C92000130DC000130DD005E30DE0000206A2EF3
:102CA200831648086C3A031D5E2E0130DC000130A9
:102CB200DD004F30DE0000206A2E83164808653A98
:102CC200031D6A2E0130DC000130DD005430DE00CD
:102CD200002083164808C500F401F501F601F7014A
:102CE2002008F0002108F1002208F2002308F30076
:102CF2000A128E250A160130031D0030F0007008FA
:102D02000319962EBD308316DC008A150A12AE23F3
:102D12008A110A168312031370088316A000710821
:102D2200A1007208A2007308A3008312ED01EE0154
:102D320080306E06F00080307002031DA22E063035
:102D42006D020318AC2E6D08BD3E84008001ED0AB1
:102D52000319EE0A992EAA01AB01752F83164808B2
:102D62003D3A031D6A2FBD30DC008A150A12AE23DC
:102D72008A110A168312031370088316A8007108B9
:102D8200A9007208AA007308AB002008CD00210830
:102D9200CE002208CF002308D0007008D1007108AD
:102DA200D2007208D3007308D4004508D5008F21E1
:102DB2007008C9007108CA007208CB007308CC0001
:102DC20049088312BC0083164A088312BD00831689
:102DD2004B088312BE0083164C088312BF00831671
:102DE2004908F0004A08F1004B08F2004C08F300D1
:102DF2000A12A4250A160A12BF270A167008F4003E
:102E02007108F5007208F6007308F7008316490886
:102E1200F0004A08F1004B08F2004C08F3000A12D5
:102E22007E210A16F401F501F601F7010A128E2538
:102E32000A160130031D0030F00070080319432FF9
:102E42003C08F0003D08F1003E08F2003F08F300A4
:102E52000A12A4250A160A12BF270A167008BC0015
:102E62007108BD007208BE007308BF000A12A425D3
:102E72000A1670088316CD007108CE00B730CF0055
:102E820025215A2F83123C088316DC0083123D0849
:102E92008316DD0083123E088316DE0083123F088C
:102EA2008316DF00B730E0008A150A1292258A11D4
:102EB2000A160230DC000A30DD00B730DE000020E6
:102EC2003C308316CD00A030CE00A830CF002423A2
:102ED200752F831603134808613A031D752F8A154F
:0C2EE2000A12BB278A110A16CF2D762F8A
:1030A000213084004C3083120313F0007A308316F1
:1030B000C6001730C7000A12F0270A16A030840095
:1030C0000C30F00038308316C6001830C7000A12E2
:1030D000F0270A166D3084000230F000F8308316B5
:1030E000C6000730C7000A12F0270A16AC30840069
:1030F0000B30F00044308316C6001830C7000A12A7
:06310000F0270A1608008A
:040FF0000034003495
:102EF4004B346534743420345134753461343A3489
:022F0400003497
:042F0600003400345F
:0E2F0A0062346134633420346E343A3400345F
:062F180078343D34003462
:0C2F1E004E344834413450343A3400340E
:082F2A000034003400340034CF
:102F32004E3468346134703420346834653420345B
:0E2F420073346F3420346234613463340034ED
:0A2F500020346C346E342834003451
:0A2F5A0065347834703428340034F4
:0A2F6400733469346E3428340034ED
:0A2F6E0063346F34733428340034E8
:082F780049344E3446340034A4
:082F80004E3461344E3400347C
:042F880030340034AD
:102F8C000034003400347F341834723431347E34DD
:102F9C00F034FD3475347C344734583463347A342B
:102FAC00583495341D3478348234C4342E3475340A
:102FBC00A834783421347234EF34933400346F34C1
:102FCC00A034923427346B34463456341534683478
:102FDC002B343434013490347F349D3430348B347E
:102FEC00E734FF34593485340034003400347F34F2
:10300000FF34E6345B345D34C434FF347F347E34C3
:103010008034EF34FF347D349034E13429347D340E
:10302000EC348234F6347C348234AD342B347C344A
:103030000E343C34C3347B348734D13413347A3483
:0830400041347834D3347734B5
:10304800EC34F3344A3490343534953495348F3431
:103058001734C1345C348B34FD34DB34ED348634BE
:083068007234B33433348034B8
:08307000003400340034003488
:0830780061346E34733400343E
:08308000003400340034003478
:10308800443469346E3468342034743472346934A6
:063098002034583400341E
:02400E00CA2FB7
:00000001FF
